{
  "contractName": "Donation",
  "abi": [
    {
      "inputs": [],
      "stateMutability": "nonpayable",
      "type": "constructor"
    },
    {
      "anonymous": false,
      "inputs": [
        {
          "indexed": false,
          "internalType": "address",
          "name": "from",
          "type": "address"
        },
        {
          "indexed": false,
          "internalType": "address",
          "name": "to",
          "type": "address"
        },
        {
          "indexed": false,
          "internalType": "uint256",
          "name": "amount",
          "type": "uint256"
        }
      ],
      "name": "Sent",
      "type": "event"
    },
    {
      "inputs": [],
      "name": "donatorAddress",
      "outputs": [
        {
          "internalType": "address",
          "name": "",
          "type": "address"
        }
      ],
      "stateMutability": "view",
      "type": "function",
      "constant": true
    },
    {
      "inputs": [],
      "name": "donatorAmount",
      "outputs": [
        {
          "internalType": "uint256",
          "name": "",
          "type": "uint256"
        }
      ],
      "stateMutability": "view",
      "type": "function",
      "constant": true
    },
    {
      "inputs": [],
      "name": "owner",
      "outputs": [
        {
          "internalType": "address",
          "name": "",
          "type": "address"
        }
      ],
      "stateMutability": "view",
      "type": "function",
      "constant": true
    },
    {
      "inputs": [],
      "name": "totalAmount",
      "outputs": [
        {
          "internalType": "uint256",
          "name": "",
          "type": "uint256"
        }
      ],
      "stateMutability": "view",
      "type": "function",
      "constant": true
    },
    {
      "inputs": [],
      "name": "makeDonation",
      "outputs": [],
      "stateMutability": "payable",
      "type": "function",
      "payable": true
    },
    {
      "inputs": [
        {
          "internalType": "address",
          "name": "receiver",
          "type": "address"
        },
        {
          "internalType": "uint256",
          "name": "amount",
          "type": "uint256"
        }
      ],
      "name": "transfer",
      "outputs": [],
      "stateMutability": "payable",
      "type": "function",
      "payable": true
    },
    {
      "inputs": [],
      "name": "getDonations",
      "outputs": [
        {
          "internalType": "address",
          "name": "",
          "type": "address"
        },
        {
          "internalType": "uint256",
          "name": "",
          "type": "uint256"
        }
      ],
      "stateMutability": "view",
      "type": "function",
      "constant": true
    }
  ],
  "bytecode": "0x608060405234801561001057600080fd5b50336000806101000a81548173ffffffffffffffffffffffffffffffffffffffff021916908373ffffffffffffffffffffffffffffffffffffffff160217905550610721806100606000396000f3fe6080604052600436106100705760003560e01c80638da5cb5b1161004e5780638da5cb5b146100d55780638e26a03214610100578063a9059cbb1461012b578063e25f84161461014757610070565b80630cba9ecb146100755780631a39d8ef146100a057806340ea0a94146100cb575b600080fd5b34801561008157600080fd5b5061008a610173565b60405161009791906103af565b60405180910390f35b3480156100ac57600080fd5b506100b5610179565b6040516100c291906103af565b60405180910390f35b6100d361017f565b005b3480156100e157600080fd5b506100ea6101f1565b6040516100f7919061040b565b60405180910390f35b34801561010c57600080fd5b50610115610215565b604051610122919061040b565b60405180910390f35b61014560048036038101906101409190610483565b61023b565b005b34801561015357600080fd5b5061015c610365565b60405161016a9291906104c3565b60405180910390f35b60025481565b60035481565b6000341161018c57600080fd5b33600160006101000a81548173ffffffffffffffffffffffffffffffffffffffff021916908373ffffffffffffffffffffffffffffffffffffffff16021790555034600281905550600254600360008282546101e8919061051b565b92505081905550565b60008054906101000a900473ffffffffffffffffffffffffffffffffffffffff1681565b600160009054906101000a900473ffffffffffffffffffffffffffffffffffffffff1681565b60008054906101000a900473ffffffffffffffffffffffffffffffffffffffff1673ffffffffffffffffffffffffffffffffffffffff163373ffffffffffffffffffffffffffffffffffffffff16146102c9576040517f08c379a00000000000000000000000000000000000000000000000000000000081526004016102c0906105ce565b60405180910390fd5b806003541161030d576040517f08c379a000000000000000000000000000000000000000000000000000000000815260040161030490610660565b60405180910390fd5b806003600082825461031f9190610680565b925050819055507f3990db2d31862302a685e8086b5755072a6e2b5b780af1ee81ece35ee3cd3345338383604051610359939291906106b4565b60405180910390a15050565b600080600160009054906101000a900473ffffffffffffffffffffffffffffffffffffffff16600254915091509091565b6000819050919050565b6103a981610396565b82525050565b60006020820190506103c460008301846103a0565b92915050565b600073ffffffffffffffffffffffffffffffffffffffff82169050919050565b60006103f5826103ca565b9050919050565b610405816103ea565b82525050565b600060208201905061042060008301846103fc565b92915050565b600080fd5b610434816103ea565b811461043f57600080fd5b50565b6000813590506104518161042b565b92915050565b61046081610396565b811461046b57600080fd5b50565b60008135905061047d81610457565b92915050565b6000806040838503121561049a57610499610426565b5b60006104a885828601610442565b92505060206104b98582860161046e565b9150509250929050565b60006040820190506104d860008301856103fc565b6104e560208301846103a0565b9392505050565b7f4e487b7100000000000000000000000000000000000000000000000000000000600052601160045260246000fd5b600061052682610396565b915061053183610396565b9250827fffffffffffffffffffffffffffffffffffffffffffffffffffffffffffffffff03821115610566576105656104ec565b5b828201905092915050565b600082825260208201905092915050565b7f4163636573732064656e69656421000000000000000000000000000000000000600082015250565b60006105b8600e83610571565b91506105c382610582565b602082019050919050565b600060208201905081810360008301526105e7816105ab565b9050919050565b7f5472616e7366657220616d6f756e742073686f756c64206265206c657373206f60008201527f6620546f74616c20616d6f756e74210000000000000000000000000000000000602082015250565b600061064a602f83610571565b9150610655826105ee565b604082019050919050565b600060208201905081810360008301526106798161063d565b9050919050565b600061068b82610396565b915061069683610396565b9250828210156106a9576106a86104ec565b5b828203905092915050565b60006060820190506106c960008301866103fc565b6106d660208301856103fc565b6106e360408301846103a0565b94935050505056fea2646970667358221220c24f5d71f930f45f794c7827c7dfd14ec5de301c5919713c3a9291b0706f869664736f6c634300080a0033",
  "immutableReferences": {},
  "source": "//SPDX-License-Identifier: MIT\npragma solidity >=0.5 <0.9.0;\n\ncontract Donation {\n  address public owner;\n  address public donatorAddress;\n  uint256 public donatorAmount;\n  uint256 public totalAmount;\n\n  event Sent (address from, address to, uint amount);\n  \n  constructor() {\n    owner = msg.sender;\n  }\n\n  function makeDonation() public payable {\n    require(msg.value > 0 ether);\n    donatorAddress = msg.sender;\n    donatorAmount = msg.value;\n    totalAmount += donatorAmount;\n  }\n\n  function transfer(address receiver, uint amount) public payable {\n    require(msg.sender == owner, \"Access denied!\");\n    require(totalAmount > amount, \"Transfer amount should be less of Total amount!\");\n    totalAmount -= amount;\n    emit Sent(msg.sender, receiver, amount);\n    // payable(owner).transfer(totalAmount);\n  }\n\n  function getDonations() public view returns (address,uint256) {\n      return (donatorAddress,donatorAmount);\n  }\n}",
  "sourcePath": "/home/kamil//PlatformIO/Projects/DonationContract/contracts/Donation.sol",
  "compiler": {
    "name": "solc",
    "version": "0.8.10+commit.fc410830.Emscripten.clang"
  },
  "schemaVersion": "3.4.3",
  "updatedAt": "2021-11-26T20:11:14.548Z",
  "networkType": "ethereum",
  "devdoc": {
    "kind": "dev",
    "methods": {},
    "version": 1
  },
  "userdoc": {
    "kind": "user",
    "methods": {},
    "version": 1
  }
}