{
  "contractName": "Donation",
  "abi": [
    {
      "inputs": [],
      "stateMutability": "nonpayable",
      "type": "constructor"
    },
    {
      "inputs": [],
      "name": "owner",
      "outputs": [
        {
          "internalType": "address",
          "name": "",
          "type": "address"
        }
      ],
      "stateMutability": "view",
      "type": "function",
      "constant": true
    },
    {
      "inputs": [],
      "name": "makeDonation",
      "outputs": [],
      "stateMutability": "payable",
      "type": "function",
      "payable": true
    },
    {
      "inputs": [
        {
          "internalType": "address",
          "name": "receiver",
          "type": "address"
        }
      ],
      "name": "transfer",
      "outputs": [],
      "stateMutability": "payable",
      "type": "function",
      "payable": true
    },
    {
      "inputs": [],
      "name": "getDonators",
      "outputs": [
        {
          "internalType": "address[]",
          "name": "",
          "type": "address[]"
        }
      ],
      "stateMutability": "view",
      "type": "function",
      "constant": true
    },
    {
      "inputs": [],
      "name": "getAmounts",
      "outputs": [
        {
          "internalType": "uint256[]",
          "name": "",
          "type": "uint256[]"
        }
      ],
      "stateMutability": "view",
      "type": "function",
      "constant": true
    },
    {
      "inputs": [],
      "name": "getBalance",
      "outputs": [
        {
          "internalType": "uint256",
          "name": "",
          "type": "uint256"
        }
      ],
      "stateMutability": "view",
      "type": "function",
      "constant": true
    }
  ],
  "bytecode": "0x608060405234801561001057600080fd5b50336000806101000a81548173ffffffffffffffffffffffffffffffffffffffff021916908373ffffffffffffffffffffffffffffffffffffffff1602179055506108ff806100606000396000f3fe6080604052600436106100555760003560e01c806312065fe01461005a5780631a695230146100855780633d370b4e146100a157806340ea0a94146100cc5780638da5cb5b146100d6578063bf1482fa14610101575b600080fd5b34801561006657600080fd5b5061006f61012c565b60405161007c919061047a565b60405180910390f35b61009f600480360381019061009a91906104f8565b6101c3565b005b3480156100ad57600080fd5b506100b66102a3565b6040516100c391906105e3565b60405180910390f35b6100d46102fb565b005b3480156100e257600080fd5b506100eb6103af565b6040516100f89190610614565b60405180910390f35b34801561010d57600080fd5b506101166103d3565b60405161012391906106ed565b60405180910390f35b60008060009054906101000a900473ffffffffffffffffffffffffffffffffffffffff1673ffffffffffffffffffffffffffffffffffffffff163373ffffffffffffffffffffffffffffffffffffffff16146101bd576040517f08c379a00000000000000000000000000000000000000000000000000000000081526004016101b490610792565b60405180910390fd5b47905090565b60008054906101000a900473ffffffffffffffffffffffffffffffffffffffff1673ffffffffffffffffffffffffffffffffffffffff163373ffffffffffffffffffffffffffffffffffffffff1614610251576040517f08c379a000000000000000000000000000000000000000000000000000000000815260040161024890610824565b60405180910390fd5b8073ffffffffffffffffffffffffffffffffffffffff166108fc479081150290604051600060405180830381858888f19350505050158015610297573d6000803e3d6000fd5b50600060038190555050565b606060028054806020026020016040519081016040528092919081815260200182805480156102f157602002820191906000526020600020905b8154815260200190600101908083116102dd575b5050505050905090565b6000341161030857600080fd5b6001339080600181540180825580915050600190039060005260206000200160009091909190916101000a81548173ffffffffffffffffffffffffffffffffffffffff021916908373ffffffffffffffffffffffffffffffffffffffff160217905550600234908060018154018082558091505060019003906000526020600020016000909190919091505534600360008282546103a69190610873565b92505081905550565b60008054906101000a900473ffffffffffffffffffffffffffffffffffffffff1681565b6060600180548060200260200160405190810160405280929190818152602001828054801561045757602002820191906000526020600020905b8160009054906101000a900473ffffffffffffffffffffffffffffffffffffffff1673ffffffffffffffffffffffffffffffffffffffff168152602001906001019080831161040d575b5050505050905090565b6000819050919050565b61047481610461565b82525050565b600060208201905061048f600083018461046b565b92915050565b600080fd5b600073ffffffffffffffffffffffffffffffffffffffff82169050919050565b60006104c58261049a565b9050919050565b6104d5816104ba565b81146104e057600080fd5b50565b6000813590506104f2816104cc565b92915050565b60006020828403121561050e5761050d610495565b5b600061051c848285016104e3565b91505092915050565b600081519050919050565b600082825260208201905092915050565b6000819050602082019050919050565b61055a81610461565b82525050565b600061056c8383610551565b60208301905092915050565b6000602082019050919050565b600061059082610525565b61059a8185610530565b93506105a583610541565b8060005b838110156105d65781516105bd8882610560565b97506105c883610578565b9250506001810190506105a9565b5085935050505092915050565b600060208201905081810360008301526105fd8184610585565b905092915050565b61060e816104ba565b82525050565b60006020820190506106296000830184610605565b92915050565b600081519050919050565b600082825260208201905092915050565b6000819050602082019050919050565b610664816104ba565b82525050565b6000610676838361065b565b60208301905092915050565b6000602082019050919050565b600061069a8261062f565b6106a4818561063a565b93506106af8361064b565b8060005b838110156106e05781516106c7888261066a565b97506106d283610682565b9250506001810190506106b3565b5085935050505092915050565b60006020820190508181036000830152610707818461068f565b905092915050565b600082825260208201905092915050565b7f4163636573732064656e69656421204f6e6c79204f776e65722063616e20736560008201527f652062616c616e63652100000000000000000000000000000000000000000000602082015250565b600061077c602a8361070f565b915061078782610720565b604082019050919050565b600060208201905081810360008301526107ab8161076f565b9050919050565b7f4163636573732064656e69656421204f6e6c79204f776e65722063616e206d6160008201527f6b65207472616e73666572210000000000000000000000000000000000000000602082015250565b600061080e602c8361070f565b9150610819826107b2565b604082019050919050565b6000602082019050818103600083015261083d81610801565b9050919050565b7f4e487b7100000000000000000000000000000000000000000000000000000000600052601160045260246000fd5b600061087e82610461565b915061088983610461565b9250827fffffffffffffffffffffffffffffffffffffffffffffffffffffffffffffffff038211156108be576108bd610844565b5b82820190509291505056fea264697066735822122051e1093c259c0f0f04fe5ddc9cbf1a884804b4e6e43963d82e15b4a25c4e942764736f6c634300080a0033",
  "immutableReferences": {},
  "source": "// SPDX-License-Identifier: MIT\npragma solidity >=0.5 <0.9.0;\n\ncontract Donation {\n  address public owner;\n  address[] private donatorAddress;\n  uint256[] private donatorAmount;\n  uint256 private totalAmount;\n\n  //mapping (address => uint) public donations;\n  //event Sent(address from, address to, uint amount);\n\n  constructor() {\n    owner = msg.sender;\n  }\n\n  function makeDonation() public payable {\n    //ToDo: add more currencies: BNB, Matic\n    require(msg.value > 0 ether);\n    donatorAddress.push(msg.sender);\n    donatorAmount.push(msg.value);\n    totalAmount += msg.value;\n  }\n\n  function transfer(address receiver) public payable {\n    require(msg.sender == owner, \"Access denied! Only Owner can make transfer!\");\n    //emit Sent(msg.sender, receiver, amount);\n    payable(receiver).transfer(address(this).balance);\n    totalAmount = 0;\n  }\n\n  function getDonators() public view returns (address[] memory) {\n    return (donatorAddress);\n  }\n\n  function getAmounts() public view returns (uint256[] memory) {\n    return (donatorAmount);\n  }\n\n  function getBalance() public view returns (uint256) {\n    require(msg.sender == owner, \"Access denied! Only Owner can see balance!\");\n    return (address(this).balance);\n  }\n}",
  "sourcePath": "/home/kamil//PlatformIO/Projects/DonationContract/contracts/Donation.sol",
  "compiler": {
    "name": "solc",
    "version": "0.8.10+commit.fc410830.Emscripten.clang"
  },
  "schemaVersion": "3.4.3",
  "updatedAt": "2021-11-28T11:00:57.985Z",
  "networkType": "ethereum",
  "devdoc": {
    "kind": "dev",
    "methods": {},
    "version": 1
  },
  "userdoc": {
    "kind": "user",
    "methods": {},
    "version": 1
  }
}