{
  "contractName": "Donation",
  "abi": [
    {
      "inputs": [],
      "stateMutability": "nonpayable",
      "type": "constructor"
    },
    {
      "inputs": [],
      "name": "owner",
      "outputs": [
        {
          "internalType": "address",
          "name": "",
          "type": "address"
        }
      ],
      "stateMutability": "view",
      "type": "function",
      "constant": true
    },
    {
      "inputs": [],
      "name": "makeDonation",
      "outputs": [],
      "stateMutability": "payable",
      "type": "function",
      "payable": true
    },
    {
      "inputs": [
        {
          "internalType": "address",
          "name": "receiver",
          "type": "address"
        }
      ],
      "name": "transfer",
      "outputs": [],
      "stateMutability": "payable",
      "type": "function",
      "payable": true
    },
    {
      "inputs": [],
      "name": "getDonators",
      "outputs": [
        {
          "internalType": "address[]",
          "name": "",
          "type": "address[]"
        }
      ],
      "stateMutability": "view",
      "type": "function",
      "constant": true
    },
    {
      "inputs": [],
      "name": "getAmounts",
      "outputs": [
        {
          "internalType": "uint256[]",
          "name": "",
          "type": "uint256[]"
        }
      ],
      "stateMutability": "view",
      "type": "function",
      "constant": true
    },
    {
      "inputs": [],
      "name": "getBalance",
      "outputs": [
        {
          "internalType": "uint256",
          "name": "",
          "type": "uint256"
        }
      ],
      "stateMutability": "view",
      "type": "function",
      "constant": true
    }
  ],
  "bytecode": "0x608060405234801561001057600080fd5b50336000806101000a81548173ffffffffffffffffffffffffffffffffffffffff021916908373ffffffffffffffffffffffffffffffffffffffff160217905550610859806100606000396000f3fe6080604052600436106100555760003560e01c806312065fe01461005a5780631a695230146100855780633d370b4e146100a157806340ea0a94146100cc5780638da5cb5b146100d6578063bf1482fa14610101575b600080fd5b34801561006657600080fd5b5061006f61012c565b60405161007c9190610459565b60405180910390f35b61009f600480360381019061009a91906104d7565b6101c3565b005b3480156100ad57600080fd5b506100b661029b565b6040516100c391906105c2565b60405180910390f35b6100d46102f3565b005b3480156100e257600080fd5b506100eb61038e565b6040516100f891906105f3565b60405180910390f35b34801561010d57600080fd5b506101166103b2565b60405161012391906106cc565b60405180910390f35b60008060009054906101000a900473ffffffffffffffffffffffffffffffffffffffff1673ffffffffffffffffffffffffffffffffffffffff163373ffffffffffffffffffffffffffffffffffffffff16146101bd576040517f08c379a00000000000000000000000000000000000000000000000000000000081526004016101b490610771565b60405180910390fd5b47905090565b60008054906101000a900473ffffffffffffffffffffffffffffffffffffffff1673ffffffffffffffffffffffffffffffffffffffff163373ffffffffffffffffffffffffffffffffffffffff1614610251576040517f08c379a000000000000000000000000000000000000000000000000000000000815260040161024890610803565b60405180910390fd5b8073ffffffffffffffffffffffffffffffffffffffff166108fc479081150290604051600060405180830381858888f19350505050158015610297573d6000803e3d6000fd5b5050565b606060028054806020026020016040519081016040528092919081815260200182805480156102e957602002820191906000526020600020905b8154815260200190600101908083116102d5575b5050505050905090565b6000341161030057600080fd5b6001339080600181540180825580915050600190039060005260206000200160009091909190916101000a81548173ffffffffffffffffffffffffffffffffffffffff021916908373ffffffffffffffffffffffffffffffffffffffff1602179055506002349080600181540180825580915050600190039060005260206000200160009091909190915055565b60008054906101000a900473ffffffffffffffffffffffffffffffffffffffff1681565b6060600180548060200260200160405190810160405280929190818152602001828054801561043657602002820191906000526020600020905b8160009054906101000a900473ffffffffffffffffffffffffffffffffffffffff1673ffffffffffffffffffffffffffffffffffffffff16815260200190600101908083116103ec575b5050505050905090565b6000819050919050565b61045381610440565b82525050565b600060208201905061046e600083018461044a565b92915050565b600080fd5b600073ffffffffffffffffffffffffffffffffffffffff82169050919050565b60006104a482610479565b9050919050565b6104b481610499565b81146104bf57600080fd5b50565b6000813590506104d1816104ab565b92915050565b6000602082840312156104ed576104ec610474565b5b60006104fb848285016104c2565b91505092915050565b600081519050919050565b600082825260208201905092915050565b6000819050602082019050919050565b61053981610440565b82525050565b600061054b8383610530565b60208301905092915050565b6000602082019050919050565b600061056f82610504565b610579818561050f565b935061058483610520565b8060005b838110156105b557815161059c888261053f565b97506105a783610557565b925050600181019050610588565b5085935050505092915050565b600060208201905081810360008301526105dc8184610564565b905092915050565b6105ed81610499565b82525050565b600060208201905061060860008301846105e4565b92915050565b600081519050919050565b600082825260208201905092915050565b6000819050602082019050919050565b61064381610499565b82525050565b6000610655838361063a565b60208301905092915050565b6000602082019050919050565b60006106798261060e565b6106838185610619565b935061068e8361062a565b8060005b838110156106bf5781516106a68882610649565b97506106b183610661565b925050600181019050610692565b5085935050505092915050565b600060208201905081810360008301526106e6818461066e565b905092915050565b600082825260208201905092915050565b7f4163636573732064656e69656421204f6e6c79204f776e65722063616e20736560008201527f652062616c616e63652100000000000000000000000000000000000000000000602082015250565b600061075b602a836106ee565b9150610766826106ff565b604082019050919050565b6000602082019050818103600083015261078a8161074e565b9050919050565b7f4163636573732064656e69656421204f6e6c79204f776e65722063616e206d6160008201527f6b65207472616e73666572210000000000000000000000000000000000000000602082015250565b60006107ed602c836106ee565b91506107f882610791565b604082019050919050565b6000602082019050818103600083015261081c816107e0565b905091905056fea26469706673582212205676b627df536c45706272af057bb9f4f45442b369f57393bf2589fedd172a9964736f6c634300080a0033",
  "immutableReferences": {},
  "source": "// SPDX-License-Identifier: MIT\npragma solidity >=0.5 <0.9.0;\n\ncontract Donation {\n  address public owner;\n  address[] private donatorAddress;\n  uint256[] private donatorAmount;\n\n  constructor() {\n    owner = msg.sender;\n  }\n\n  function makeDonation() public payable {\n    //ToDo: add more currencies: BNB, Matic\n    require(msg.value > 0 ether);\n    donatorAddress.push(msg.sender);\n    donatorAmount.push(msg.value);\n  }\n\n  function transfer(address receiver) public payable {\n    require(msg.sender == owner, \"Access denied! Only Owner can make transfer!\");\n    payable(receiver).transfer(address(this).balance);\n  }\n\n  function getDonators() public view returns (address[] memory) {\n    return (donatorAddress);\n  }\n\n  function getAmounts() public view returns (uint256[] memory) {\n    return (donatorAmount);\n  }\n\n  function getBalance() public view returns (uint256) {\n    require(msg.sender == owner, \"Access denied! Only Owner can see balance!\");\n    return (address(this).balance);\n  }\n}",
  "sourcePath": "/home/kamil//PlatformIO/Projects/DonationContract/contracts/Donation.sol",
  "compiler": {
    "name": "solc",
    "version": "0.8.10+commit.fc410830.Emscripten.clang"
  },
  "schemaVersion": "3.4.3",
  "updatedAt": "2021-11-28T20:38:53.940Z",
  "networkType": "ethereum",
  "devdoc": {
    "kind": "dev",
    "methods": {},
    "version": 1
  },
  "userdoc": {
    "kind": "user",
    "methods": {},
    "version": 1
  }
}